:100000000C949E000C94C6000C94C6000C94C60080
:100010000C94C6000C94C6000C94C6000C94C60048
:100020000C94C6000C94C6000C94C6000C94C60038
:100030000C94C6000C94C6000C94C6000C94C60028
:100040000C9488050C94C6000C946A040C949C04CF
:100050000C94C6000C94C6000C94C6000C94C60008
:100060000C94C6000C94C6000A436F6E74726F6CD9
:100070006C657220436F6E6E6563746564210A005F
:100080000D0A58626F7820576972656C657373202A
:100090005265636569766572204C69627261727936
:1000A0002053746172746564000D0A4F53432064D9
:1000B0006964206E6F7420737461727400000000B4
:1000C0000800020100000304070000000000000017
:1000D00000010204081020408001020408102001E1
:1000E00002040810200404040404040404020202AC
:1000F000020202030303030303000000002500289B
:10010000002B0000000000240027002A000001004E
:1001100008000200040020001000400080000000E1
:1001200000010002002000100040008000040008D0
:1001300000000203040501000303CC0411241FBEC8
:10014000CFEFD8E0DEBFCDBF11E0A0E0B1E0E0E44A
:10015000FAE202C005900D92A639B107D9F723E063
:10016000A6E9B1E001C01D92A537B207E1F711E0A1
:10017000CCE3D1E004C02297FE010E941A15C833D7
:10018000D107C9F70E94F4020C941E150C940000CC
:10019000EF92FF920F931F93CF93DF9300D0CDB7D1
:1001A000DEB77C01062F142F61E0802F5A837983FC
:1001B0000E94980661E0812F0E949806F701008353
:1001C0007981718312835A8153830F900F90DF914D
:1001D000CF911F910F91FF90EF9008950F931F9370
:1001E000CF93DF93EC018B0161E08A810E94D106FD
:1001F00061E088810E94D106C8010E94290660E062
:100200008881DF91CF911F910F910C94D1060F93AC
:100210001F93CF93DF93EC018B0160E08A810E94F2
:10022000D10661E088810E94D106C8010E9429069A
:1002300060E08881DF91CF911F910F910C94D106DE
:10024000089582E592E00E94450F80910001882385
:1002500009F45BC08091A601882309F456C020E010
:1002600040E060E083EA91E00E940A1340E060E031
:1002700083EA91E00E94851264EF71E080E090E0F3
:100280000E94010640E061E070E083EA91E00E9494
:100290009A1264EF71E080E090E00E94010640E075
:1002A00062E070E083EA91E00E949A1264EF71E0EC
:1002B00080E090E00E94010640E064E070E083EAA4
:1002C00091E00E949A1264EF71E080E090E00E9459
:1002D000010640E063E070E083EA91E00E949A1238
:1002E00064EF71E080E090E00E94010640E061E090
:1002F00070E083EA91E00E949A121092000168E691
:1003000070E089EC92E00E944D0540E060E170E011
:1003100083EA91E00E941F12882379F08091010105
:10032000909102010196909302018093010163E094
:1003300071E089EC92E00E94760540E061E170E0B6
:1003400083EA91E00E941F12882379F080910101D5
:10035000909102010197909302018093010166E15F
:1003600071E089EC92E00E94760540E060E070E088
:1003700083EA91E00E941F12882371F060910101CD
:10038000709102018BE991E00E94EE0069E271E058
:1003900089EC92E00E94760540E062E070E083EA3A
:1003A00091E00E941F12882371F060910101709109
:1003B00002018BE991E00E9407016BE471E089EC96
:1003C00092E00E94760540E063E070E083EA91E00D
:1003D0000E941F12882371F0609101017091020147
:1003E0008FE991E00E94EE006FE271E089EC92E00B
:1003F0000E94760540E061E070E083EA91E00E94AF
:100400001F12882371F060910101709102018FE940
:1004100091E00E94070168E371E089EC92E00E949C
:10042000760540E06FE070E083EA91E00E941F12E1
:10043000882371F0609101017091020187E991E0D8
:100440000E94EE0062E471E089EC92E00E94760581
:1004500040E06DE070E083EA91E00E941F12882383
:1004600071F0609101017091020187E991E00E94B1
:1004700007016AE471E089EC92E00C947605089536
:100480002A9A08952A988EBD0DB407FEFDCF1EBC92
:100490000DB407FEFDCF0E9440028EB508952A9844
:1004A00082608EBD0DB407FEFDCF6EBD0DB407FE9C
:1004B000FDCF0C94400288EF0E944202807C803481
:1004C000A1F018F4882301F10895803819F0803CD8
:1004D000B9F0089588ED0E94420281FD0BC069ECDD
:1004E00088ED0E944F0282E00CC088ED0E9442021B
:1004F00081FDF5CF6BEC88ED0E944F0283E001C0D7
:1005000081E080939601089561ED88ED0E944F028D
:100510001092960108950F931F93CF93DF938C0150
:10052000229A0E944002259A239A2498229A80E5D2
:100530008CBD81E08DBD219868E188E80E944F0262
:1005400060E288E70E944F0260E088E70E944F0265
:10055000C0E0D0E088E60E944202219680FD06C0FD
:10056000CF3F8FEFD807B1F78FEF1DC061EC88ED5B
:100570000E944F0260E680ED0E944F0264E088EE28
:100580000E944F0288EE0E94420282FFFBCFC80108
:100590000E945B0260E288EC0E944F0261E080E80A
:1005A0000E944F0280E0DF91CF911F910F9108953B
:1005B00026E040E052EC61E070E089EC92E00E94BD
:1005C000080482E592E00E948B028F3F39F469EAC9
:1005D00070E089EC92E00E944D05FFCF60E870E08A
:1005E00089EC92E00C944D050E9434060E94200193
:1005F0000E94D802C2E5D3E00E9421012097E1F3D6
:100600000E945203F9CF82E592E00E94070762E55B
:1006100072E083EA91E00E94C01145E050E062E0A0
:1006200070E08FE991E00E94C80046E050E063E08E
:1006300070E08BE991E00E94C80047E050E064E080
:1006400070E087E991E00C94C800FC01818D228D57
:1006500090E0805C9F4F821B91098F7399270895CA
:10066000FC01918D828D981731F0828DE80FF11D7C
:10067000858D90E008958FEF9FEF0895FC01918D97
:10068000828D981761F0828DDF01A80FB11D5D96F4
:100690008C91928D9F5F9F73928F90E008958FEF62
:1006A0009FEF089582EC94E0892B49F080E090E080
:1006B000892B29F00E94C20481110C940000089536
:1006C000FC01848DDF01A80FB11DA35ABF4F2C91EF
:1006D000848D90E001968F739927848FA689B789BE
:1006E0002C93A089B1898C9180648C93938D848D97
:1006F000981306C00288F389E02D80818F7D808366
:100700000895CF93DF93EC01888D8823C9F0EA899F
:10071000FB89808185FD05C0A889B9898C9186FDFA
:100720000FC00FB607FCF5CF808185FFF2CFA889F7
:10073000B9898C9185FFEDCFCE010E946003E7CF90
:10074000DF91CF910895CF92DF92FF920F931F9385
:10075000CF93DF931F92CDB7DEB76C0181E0D60156
:1007600058968C9358975B969C915B975C968C916E
:100770005C97981307C05096ED91FC91519780813A
:1007800085FD2EC0F601038D10E00F5F1F4F0F7324
:100790001127F02EF601848DF81211C00FB607FC58
:1007A000F9CFD6015096ED91FC915197808185FF4C
:1007B000F1CFC60169830E9460036981EBCF838D0D
:1007C000E80FF11DE35AFF4F6083D6015B960C934F
:1007D0005B975296ED91FC915397808180620CC09B
:1007E000D6015696ED91FC91579760835096ED9106
:1007F000FC91519780818064808381E090E00F902C
:10080000DF91CF911F910F91FF90DF90CF900895CE
:10081000BF92CF92DF92EF92FF92CF93DF93EC01E2
:100820006A017B01B22EE889F98982E08083411553
:1008300081EE580761057105A1F060E079E08DE374
:1008400090E0A70196010E94F61421503109410958
:1008500051095695479537952795211580E1380719
:1008600098F0E889F989108260E874E88EE190E0F8
:10087000A70196010E94F61421503109410951093E
:100880005695479537952795EC85FD853083EE8500
:10089000FF852083188EEC89FD89B082EA89FB8967
:1008A000808180618083EA89FB8980818860808380
:1008B000EA89FB89808180688083EA89FB8980815D
:1008C0008F7D8083DF91CF91FF90EF90DF90CF906D
:1008D000BF9008951F920F920FB60F9211242F937D
:1008E0008F939F93EF93FF93E091D902F091DA02F7
:1008F0008081E091DF02F091E00282FD12C09081E0
:100900008091E2028F5F8F732091E302821751F092
:10091000E091E202F0E0E753FD4F958F8093E20211
:1009200001C08081FF91EF919F918F912F910F9046
:100930000FBE0F901F9018951F920F920FB60F9237
:1009400011242F933F934F935F936F937F938F93D4
:100950009F93AF93BF93EF93FF9389EC92E00E9434
:100960006003FF91EF91BF91AF919F918F917F9124
:100970006F915F914F913F912F910F900FBE0F900C
:100980001F90189589EC92E00E94250321E0892BA5
:1009900009F420E0822F08951092CC021092CB022D
:1009A00088EE93E0A0E0B0E08093CD029093CE0279
:1009B000A093CF02B093D00288E591E09093CA0251
:1009C0008093C90285EC90E09093D6028093D50283
:1009D00084EC90E09093D8028093D70280EC90E072
:1009E0009093DA028093D90281EC90E09093DC023C
:1009F0008093DB0282EC90E09093DE028093DD0234
:100A000086EC90E09093E0028093DF021092E20285
:100A10001092E3021092E4021092E5020895CF9240
:100A2000DF92EF92FF920F931F93CF93DF936C01AE
:100A30007A01EB01E60EF71E00E010E0CE15DF05AF
:100A400061F06991D601ED91FC910190F081E02D6A
:100A5000C6010995080F191FF1CFC801DF91CF9189
:100A60001F910F91FF90EF90DF90CF900895611547
:100A7000710581F0DB010D900020E9F7AD014150D7
:100A80005109461B570BDC01ED91FC910280F3816B
:100A9000E02D099480E090E00895EF92FF920F938B
:100AA0001F93CF93DF938C01FB01C0E0D0E06491F2
:100AB0007F018FEFE81AF80A662361F0D801ED9103
:100AC000FC910190F081E02DC8010995C80FD91F54
:100AD000F701EDCFCE01DF91CF911F910F91FF90E4
:100AE000EF90089564E671E00C9437050F931F931F
:100AF000CF93DF93EC010E9437058C01CE010E9459
:100B00007205800F911FDF91CF911F910F91089572
:100B10001F920F920FB60F9211242F933F938F9332
:100B20009F93AF93BF938091670390916803A091C7
:100B30006903B0916A033091660323E0230F2D37D8
:100B400020F40196A11DB11D05C026E8230F0296D1
:100B5000A11DB11D209366038093670390936803E2
:100B6000A0936903B0936A0380916B0390916C0327
:100B7000A0916D03B0916E030196A11DB11D8093EC
:100B80006B0390936C03A0936D03B0936E03BF91BE
:100B9000AF919F918F913F912F910F900FBE0F902A
:100BA0001F9018952FB7F8946091670370916803B0
:100BB0008091690390916A032FBF08953FB7F8941D
:100BC00080916B0390916C03A0916D03B0916E03C3
:100BD00026B5A89B05C02F3F19F00196A11DB11D98
:100BE0003FBF6627782F892F9A2F620F711D811DB5
:100BF000911D42E0660F771F881F991F4A95D1F714
:100C00000895CF92DF92EF92FF92CF93DF936B0123
:100C10007C010E94DE05EB01C114D104E104F10462
:100C200089F00E94F5140E94DE056C1B7D0B683E66
:100C3000734090F381E0C81AD108E108F108C85167
:100C4000DC4FEACFDF91CF91FF90EF90DF90CF9014
:100C500008958230910538F0880F991F880F991FE9
:100C600005970197F1F70895789484B5826084BD63
:100C700084B5816084BD85B5826085BD85B58160A0
:100C800085BDEEE6F0E0808181608083E1E8F0E000
:100C90001082808182608083808181608083E0E82F
:100CA000F0E0808181608083E1EBF0E0808184600E
:100CB0008083E0EBF0E0808181608083EAE7F0E010
:100CC0008081846080838081826080838081816074
:100CD00080838081806880831092C1000895833072
:100CE00081F028F4813099F08230A1F008958730A6
:100CF000A9F08830B9F08430D1F4809180008F7DE4
:100D000003C0809180008F7780938000089584B520
:100D10008F7702C084B58F7D84BD08958091B00027
:100D20008F7703C08091B0008F7D8093B0000895CD
:100D3000CF93DF9390E0FC01EF52FF4F2491FC0131
:100D4000EB51FF4F8491882349F190E0880F991F60
:100D5000FC01ED5FFE4FA591B49187509F4FFC01C0
:100D6000C591D4919FB7611108C0F8948C912095DA
:100D700082238C93888182230AC0623051F4F894D4
:100D80008C91322F309583238C938881822B88839A
:100D900004C0F8948C91822B8C939FBFDF91CF91EC
:100DA00008950F931F93CF93DF931F92CDB7DEB7B4
:100DB000282F30E0F901E354FF4F8491F901EF52FD
:100DC000FF4F1491F901EB51FF4F04910023C9F03B
:100DD000882321F069830E946F066981E02FF0E08B
:100DE000EE0FFF1FE750FF4FA591B4919FB7F89406
:100DF0008C91611103C01095812301C0812B8C93CC
:100E00009FBF0F90DF91CF911F910F910895FC012B
:100E100087E791E0918380831582108681E0818746
:100E200012869F012E5F3F4F37832683128288E010
:100E300083838CE3848380E090E041E0DF01A80FAE
:100E4000B91F1D961C921D971E964C931E971F96B8
:100E50001C921F971C963C932E931B9705968B34E0
:100E6000910561F7EA58FF4F108281E18093730387
:100E7000089520E030E041E0FC01E20FF31F5585CA
:100E8000561739F04F5F2B5F3F4F4031A9F780E095
:100E90000895842F0895EF92FF921F93CF93DF93CD
:100EA00000D0CDB7DEB77C01162F67FD5FC02830BC
:100EB00008F05CC0442331F0DC0115968C9187303A
:100EC00009F454C060E0C7012A8349830E943907AE
:100ED0002A814981882309F449C0E82FF0E01111E3
:100EE00023C085E08E9FD0018F9FB00D1124AE0DE1
:100EF000BF1D442359F081E418968C93D7011596B1
:100F00008C9115978F5F15968C9303C081E018968E
:100F10008C9385E08E9FD0018F9FB00D1124AE0D74
:100F2000BF1D18968C9123C0612F6770660F660FE6
:100F3000660F442361F06064D70115968C91159774
:100F40008F5F15968C938770687F682B03C027701E
:100F5000687B622B85E08E9FD0018F9FB00D11249E
:100F6000AE0DBF1D18966C93862F01C080E00F90C8
:100F70000F90DF91CF911F91FF90EF900895CF9345
:100F8000DF93EC01662359F00E943907882349F06A
:100F90009E0145E0849F200D311D1124C901069654
:100FA00002C080E090E0DF91CF910895CF93DF936E
:100FB0001F92CDB7DEB749830E94BF0749810097D2
:100FC00089F0DC01ED91FC911197309759F013965F
:100FD0009C9180E0891731F02081241731F03396FD
:100FE0008F5FF8CF80E090E001C0CF010F90DF91DC
:100FF000CF910895EF92FF921F93CF93DF931F92AB
:10100000CDB7DEB7162F79012115310569F0498377
:101010000E94BF07FC014981009741F01283F182D1
:10102000E082438380E003C088ED01C086ED0F902D
:10103000DF91CF911F91FF90EF9008952A98089526
:10104000CF93DF931F92CDB7DEB789830E941E082E
:1010500089818EBD0DB407FEFDCF1EBC0DB407FE09
:10106000FDCF0E9440028EB50F90DF91CF91089581
:10107000CF93DF9300D0CDB7DEB76A8389830E9418
:101080001E08898182608EBD6A810DB407FEFDCF86
:101090006EBD0DB407FEFDCF0F900F90DF91CF9185
:1010A0000C9440028F929F92BF92CF92DF92EF9268
:1010B000FF920F931F93CF93DF931F92CDB7DEB7AD
:1010C0004C01B62E690149830E94BF077C0149810A
:1010D000009709F443C0FC0180819181892B09F4B8
:1010E0003FC06B2DC4010E94D607F6019183808317
:1010F0000097C1F1FC01228126952695822F90E070
:10110000409764F441E050E060E070E004C0440FB8
:10111000551F661F771F2A95D2F702C040E050E89E
:1011200041505109F801518340836B2D80EE0E949C
:10113000380888ED0E942008F7019481992339F03E
:10114000F401EA58FF4F60816260682B02C0682F8B
:10115000697F88ED0E94380880E005C086ED03C0F5
:1011600087ED01C08BED0F90DF91CF911F910F9113
:10117000FF90EF90DF90CF90BF909F908F90089559
:101180008F929F92AF92BF92CF92DF92EF92FF9297
:101190000F931F93CF93DF931F92CDB7DEB7A62E89
:1011A000890149830E94D2056B017C0188E8C80E41
:1011B00083E1D81EE11CF11C812C912CB12C20E084
:1011C0004981A42A29830E94D2056C197D098E09C0
:1011D0009F09298197FF2DC06A2D80EF0E94380852
:1011E0000E94D2056C197D098E099F0997FF09C0DD
:1011F00088EC0E94200887FFF3CF60E888EC0E940B
:10120000380888EF0E942008282F2F70243019F00A
:101210002E3059F00EC0EFEF8E1A9E0A01151105FF
:1012200089F28016910671F604C0B394F3E0BF1200
:10123000C9CF822F0F90DF91CF911F910F91FF9017
:10124000EF90DF90CF90BF90AF909F908F900895D8
:101250009F92AF92BF92CF92DF92EF92FF920F9345
:101260001F93CF93DF937C01B42E122FAA24A39453
:10127000DC01A60FB11DA60FB11D6D0186E5C80EDC
:10128000D11CC42FD0E0AB96CC0FDD1FCE0DDF1DDF
:10129000D6018D919C91DC01ED91FC910280F3814E
:1012A000E02D202F412F6B2D0995803EC1F4B11008
:1012B0000BC061E088EE0E94380866E670E080E0CE
:1012C00090E00E94010615C088819981DC01ED91B2
:1012D000FC910284F385E02D612F09950AC08D30C1
:1012E00031F48FEF8A0D833008F042C017C08111AE
:1012F00042C0F60180819181DC01ED91FC91019069
:10130000F081E02D202F412F6B2D0995982EBDE007
:101310008B130CC08FEF8A0D833050F464E670E0BD
:1013200080E090E00E940106A394B2CF882311F1DF
:10133000B1100BC061E088EE0E94380866E670E0EC
:1013400080E090E00E94010611C0EB2DF0E0BB961A
:10135000EE0FFF1FEE0DFF1D80819181DC01ED91ED
:10136000FC910284F385E02D612F0995892D03C03E
:101370008DE001C080E0DF91CF911F910F91FF9030
:10138000EF90DF90CF90BF90AF909F9008950F9314
:101390001F93CF93DF9300D0CDB7DEB78A016A8366
:1013A00089830E941E08898182608EBDF8016A814E
:1013B000862F882339F00DB407FEFDCF91919EBD95
:1013C0008150F7CF060F111D0DB407FEFDCF0E940F
:1013D0004002C8010F900F90DF91CF911F910F91A4
:1013E00008952F923F924F925F926F927F928F92C9
:1013F0009F92AF92BF92CF92DF92EF92FF920F93A4
:101400001F93CF93DF9300D000D01F92CDB7DEB7EC
:101410007D836C835A016901FB0121808FEF820D6E
:10142000803408F06FC00E94D2052B013C01F8E81F
:101430004F0EF3E15F1E611C711CEC81FD81828106
:1014400080FF02C060E801C060E488EE0E943808B6
:1014500020E0312CC114D10409F444C076012C14CD
:101460003D0408F47101EA82A8016E2D80E10E941A
:10147000C7096E2D88E30E943808EC81FD816081E8
:10148000606280EF0E94380888EC0E94200887FF85
:10149000FBCF60E888EC0E94380888EF0E942008A3
:1014A000282F2F70812C912C1982222309F46BC0D4
:1014B0002B830E94D20564197509860997092B812F
:1014C00097FF61C0263001F12E3009F456C0243058
:1014D00049F4FFEF8F1A9F0AA114B10459F18A143D
:1014E0009B0441F588EF2B830E94200885FB882709
:1014F00080F9EC81FD81928180FB90F992832B81B0
:10150000822F46C08AED44C088EF0E94200885FBE8
:10151000882780F991E08927EC81FD81928180FB09
:1015200090F9928390FF02C060E801C060E488EE09
:101530000E94380860E088E30E943808F801608162
:1015400080E10E9438086A8188E30E943808EC81B3
:10155000FD816081606280EF0E94380888EC0E9403
:10156000200887FFFBCF60E888EC0E94380888EFEE
:101570000E942008282F2F7098CF89818F5F898340
:101580008330C1F6AFCFCE18DF080E0D1F1D62CF1E
:101590000F900F900F900F900F90DF91CF911F91B0
:1015A0000F91FF90EF90DF90CF90BF90AF909F9002
:1015B0008F907F906F905F904F903F902F90089505
:1015C000AF92BF92CF92DF92EF92FF920F931F9351
:1015D000CF93DF9300D000D0CDB7DEB77C01690197
:1015E00058011C821B821A8219828E010F5F1F4FC5
:1015F0009E012D5F3F4F0E945208811109C0498111
:101600005A816B817C8185019601C7010E94F10995
:101610000F900F900F900F90DF91CF911F910F912E
:10162000FF90EF90DF90CF90BF90AF9008952F92F2
:101630003F924F925F926F927F928F929F92AF9262
:10164000BF92CF92DF92EF92FF920F931F93CF93AF
:10165000DF93CDB7DEB729970FB6F894DEBF0FBE84
:10166000CDBF4C01798768875C834B836901F901A1
:10167000A080B180FB01F181FA83F901118210820F
:10168000FB01828181FF02C060E201C060E188EE5F
:101690000E9438082E2C312C412C512CAD822B81EC
:1016A0003C81E885F985408160E0C4010E94C00862
:1016B00089838630B1F488EF0E942008829581707A
:1016C000F1E08F27E885F985928180FB91F992837B
:1016D00091FF02C060E201C060E188EE0E9438081C
:1016E000DECF9981911162C088EC0E94200882FFB0
:1016F0005BC080E30E942008F82E282F30E0A2165D
:10170000B30608F4FD80F601208131816F2C712C25
:10171000A501421B530B57FF02C040E050E093016C
:10172000461557050CF49A012E833F830E941E082C
:10173000F8E0FEBD3F812E810DB407FEFDCFF8011C
:10174000822F800F8E1739F01EBC0DB407FEFDCF1F
:101750004EB54193F7CF020F131F0E94400264E081
:1017600088EC0E943808F60120813181260D371D52
:1017700031832083FA81FF1618F02A153B0560F0AB
:1017800088EF0E94200882958170E885F985928112
:1017900080FB91F992830AC0EE2009F480CFC20148
:1017A000B1010E9401067BCF90EF99838981299630
:1017B0000FB6F894DEBF0FBECDBFDF91CF911F9162
:1017C0000F91FF90EF90DF90CF90BF90AF909F90E0
:1017D0008F907F906F905F904F903F902F900895E3
:1017E0002F923F924F925F926F927F928F929F9231
:1017F000AF92BF92CF92DF92EF92FF920F931F931F
:10180000CF93DF93CDB7DEB762970FB6F894DEBF04
:101810000FBECDBF3C01F42E322E202E5C2D4FA0EA
:1018200058A4C9A4DAA4188A1F861E861D868E01B4
:10183000035F1F4F9E01215F3F4F598B0E9452084B
:101840005989811194C039822A82EB825C83BE82DD
:10185000AD8298868F82AE014F5F5F4F68E080E275
:101860000E94C7092D853E854F2D60E1C3010E946E
:10187000C008182F81117AC0232C221C2224221C7C
:10188000C114D10409F466C0EF85F8898281222051
:1018900009F453C082608283540133243394A11429
:1018A000B10409F455C05C864B864D855E856F8515
:1018B0007889E12C86019E01255F3F4FC3010E947C
:1018C000170B182F8630B1F42F85388988EF298BB4
:1018D0003A8B0E94200885FB882780F98325298977
:1018E0003A89D90112969C91129780FB91F9129630
:1018F0009C93D5CF81113AC0EBA5FCA53097A1F000
:101900000190F081E02D0190F081E02DC4018A1951
:101910009B099A8789876B857C859E01275F3F4F4E
:10192000A6018BA59CA509958B859C85A81AB90A4B
:101930008415950508F0B3CF0DC0816082834D8575
:101940005E8586019201BF01C3010E94F109182F33
:1019500011110CC02D853E85222011F060EA01C0D6
:1019600060E84F2DC3010E94C00801C0812F62961C
:101970000FB6F894DEBF0FBECDBFDF91CF911F91A0
:101980000F91FF90EF90DF90CF90BF90AF909F901E
:101990008F907F906F905F904F903F902F90089521
:1019A0008F929F92AF92BF92CF92EF920F931F931D
:1019B0001F921F921F930F933F932F934901A12CC6
:1019C000B12CCC24C394E12C06E020E80E94F00B5B
:1019D0000F900F900F900F900F900F901F910F91FD
:1019E000EF90CF90BF90AF909F908F9008958F927F
:1019F0009F92AF92BF92CF92EF920F93CF931F928D
:101A00001F921F921F921F921F92812C912CA12C2A
:101A1000B12CC12CE22E05E020E00E94F00BC82F73
:101A20006CE271E080E090E00E9401060F900F9060
:101A30000F900F900F900F908C2FCF910F91EF90F0
:101A4000CF90BF90AF909F908F9008958F929F926C
:101A5000AF92BF92CF92EF920F931F921F921F925D
:101A60001F921F921F92812C912CA12CB12CC12C62
:101A7000E22E09E020E00E94F00B0F900F900F90F3
:101A80000F900F900F900F91EF90CF90BF90AF906D
:101A90009F908F9008958F929F92AF92BF92CF9216
:101AA000DF92EF920F931F93CF93DF9300D000D07C
:101AB000CDB7DEB76C01590148011C821B821A8226
:101AC00019828E010F5F1F4F9E012D5F3F4F0E94B5
:101AD0005208811109C049815A816B817C8184013E
:101AE0009501C6010E94170B0F900F900F900F9059
:101AF000DF91CF911F910F91EF90DF90CF90BF902A
:101B0000AF909F908F900895CF92DF92FF920F93A6
:101B10001F93CF93DF9300D0CDB7DEB76C01662360
:101B200009F442C0062F10E085E0689FB00111243F
:101B3000F601E60FF71F8085282F277086FF19C052
:101B400031E065E0F62EF601F39EE00DF11D112463
:101B5000808586958695869587708217E1F03F5F30
:101B6000303188F3F6018581821303C02150F601DC
:101B7000258385E0809FF001819FF00D1124EC0DFD
:101B8000FD1D108681E08187128682E0C80ED11C7F
:101B9000D782C68209C0632FC6012A8339830E9477
:101BA000840D2A813981CFCF0F900F90DF91CF9193
:101BB0001F910F91FF90DF90CF900895CF93DF9307
:101BC000EC016134A1F4FC01855B9F4F41E09E0173
:101BD0002E5F3F4F158646871786348723873596B5
:101BE000E817F907B9F71D82DF91CF9108950E9498
:101BF0003907682FCE01DF91CF910C94840D0F939C
:101C00001F93CF93DF93EC01022FCA3F8FEFD807CA
:101C100011F486ED29C08E819F81892B01F12A87DD
:101C2000242F40E0CE010E944B07182F8823C9F0D3
:101C3000682FCE010E94BF07009759F3FC0104836F
:101C4000212F40E060E0CE010E94F70C082F88238E
:101C500051F0612FCE010E94DE0D802F05C087ED6F
:101C600003C084ED01C080E0DF91CF911F910F91FF
:101C700008952F923F924F925F926F927F928F9230
:101C80009F92AF92BF92CF92DF92EF92FF920F930B
:101C90001F93CF93DF93CDB7DEB766970FB6F89457
:101CA000DEBF0FBECDBF7C01862E742E922E1B8A06
:101CB00088E08C8B8CE38D8BD701ED91FC910190AA
:101CC000F081E02D60E0C70109956C01009709F4EF
:101CD000ABC0FC01A080B180CE014396918380838C
:101CE00094828E010F5F1F4F22E130E040E060E000
:101CF000C7010E94D00CD601AD92BC928111ACC03C
:101D000029843A844B845C84BD81BE8B1E8157013B
:101D1000612C6501E6E5CE0ED11CD6018D919C911A
:101D2000009789F1DC01ED91FC910084F185E02DB3
:101D30000995811128C0F60180819181DC01ED9126
:101D4000FC910088F189E02D612F09958823D9F055
:101D5000F60180819181DC01ED91FC910484F5858F
:101D6000E02DA201B1010995811160C0F6018081C9
:101D70009181DC01ED91FC910684F785E02D6E895F
:101D80000995811153C06394B2E0AB0EB11CE0E140
:101D90006E12BFCF5701612C6501F6E5CF0ED11C45
:101DA000D6018D919C91009789F1DC01ED91FC9118
:101DB0000084F185E02D0995811128C0F60180810C
:101DC0009181DC01ED91FC910088F189E02D612F7A
:101DD00009958823B1F1F60180819181DC01ED91B3
:101DE000FC910484F585E02DA201B10109958111D2
:101DF0000DC0F60180819181DC01ED91FC9106849A
:101E0000F785E02D6E8909958823D9F06394B2E0B7
:101E1000AB0EB11CE0E16E12BFCF292D472D682D0E
:101E2000C7010E94FF0D18C086ED16C0092D272D91
:101E3000482D662DC7010E942809813D09F4A3CFD2
:101E40000BC0092D272D482D662DC7010E9428099A
:101E5000982F977F913DD1F266960FB6F894DEBF2A
:101E60000FBECDBFDF91CF911F910F91FF90EF90EB
:101E7000DF90CF90BF90AF909F908F907F906F90AA
:101E80005F904F903F902F900895FF920F931F9374
:101E9000CF93DF93EC0119990EC088EC0E942008C3
:101EA00085FF05C0CE010E945B0260E201C060E0D8
:101EB00088EC0E94380880919601813051F058F0EA
:101EC000823029F0833039F5FF24F3940DC0F12CD2
:101ED0000BC083E106C080917303807F8031D9F00D
:101EE00081E18093730317C080917303807F8031F9
:101EF00099F40E94D20568537F4F8F4F9F4F609394
:101F00006F0370937003809371039093720380E268
:101F10008093730301C0F12C00E010E0FE01E00F9C
:101F2000F11FEA5AFF4F80819181009739F0DC015F
:101F3000ED91FC910680F781E02D09950E5F1F4F12
:101F40000032110559F780917303803409F446C0BB
:101F500070F4803269F18033D9F1813109F088C0A1
:101F6000FE01EA58FF4F108200E010E00AC0813500
:101F700009F45AC0803809F46AC0803509F078C085
:101F80003CC0FE01E00FF11FEA5AFF4F80819181B2
:101F9000009739F0DC01ED91FC910480F581E02D92
:101FA00009950E5F1F4F0032110559F782E15EC09F
:101FB0000E94D20500916F0310917003209171036C
:101FC00030917203601B710B820B930B97FD50C015
:101FD00061E088EE0E94380880E448C088EE0E94E4
:101FE000200880FD45C088ED0E942008682F6860A9
:101FF00088ED0E94380880E539C088EC0E942008EE
:1020000086FF36C081E5809373030E94D2056C5E23
:102010007F4F8F4F9F4F60936F0370937003809338
:1020200071039093720324C00E94D20500916F0344
:10203000109170032091710330917203601B710B3A
:10204000820B930B97FD14C080E8809373032F2DB0
:1020500040E060E0CE010E94390E882331F0823DDD
:1020600039F08093740380EA01C080E980937303A0
:10207000DF91CF911F910F91FF900895089580E017
:10208000089581E00895FC0181850895FC0187A1F0
:1020900008956E3584E0780739F06D3A8BE1780762
:1020A00019F06E32764149F4493187E0580711F44E
:1020B00081E0089541395240D9F380E00895CF93EB
:1020C000DF93EC011A821B821C821D821E828F818B
:1020D0009885DC01ED91FC910480F581E02D698506
:1020E000099519861FA280E0DF91CF9108956F9224
:1020F0007F928F929F92AF92BF92CF92DF92EF9298
:10210000FF920F931F93CF93DF93CDB7DEB7639703
:102110000FB6F894DEBF0FBECDBF7C01762E642EC5
:10212000DC011796AD90BC90189719968C9181118F
:102130006DC0D501ED91FC910190F081E02D60E042
:10214000C5012B8B09956C012B89009709F460C0A0
:10215000FC01808091808114910409F45BC0C70167
:102160000A969183808324838E010F5F1F4F22E1A3
:1021700030E040E060E0D70117968D919C91189770
:102180000E94D00C182FF6019182808281112FC0FD
:1021900089859A85EB85FC858E3524E0920739F098
:1021A0008D3AABE19A0719F08E32964121F5E9316B
:1021B00027E0F20719F0E139F240E9F4D501ED9199
:1021C000FC910280F381E02D262D40E0672DC501B2
:1021D0000995F70181878823F9F08885838764E171
:1021E00070E080E090E00E94010680EE16C08D3025
:1021F00019F011EE01C011EDD701ED91FC910480B1
:10220000F581E02DC7010995812F07C089ED05C033
:1022100086ED03C087ED01C084ED63960FB6F89498
:10222000DEBF0FBECDBFDF91CF911F910F91FF9009
:10223000EF90DF90CF90BF90AF909F908F907F9066
:102240006F900895CF92DF92EF92FF920F931F93BA
:10225000CF93DF93EC01C22E0F811885D801ED9149
:10226000FC910190F081E02D6985C80109957C0100
:10227000009711F486ED7BC06CE271E080E090E0A5
:102280000E940106298540E060E08F8198850E94C8
:10229000F70CD82E882319F0F701148260C0D701FB
:1022A00014961C92D801ED91FC910190F081E02DE3
:1022B0006985C80109950097E9F2FC01C4828E0185
:1022C000065F1F4F980141E069858F8198850E94C4
:1022D000FA07D82E811143C0FF24F394FD8633E022
:1022E00027E090E29E8784E08F87F88A998B8A8B1B
:1022F0003B8B9C8B8D8B3E8B9F8B888F35E0398FF2
:102300009A8F8B8F3C8F9D8F8E8F2F8F98A389A351
:102310002AA39BA38CA3980149E069858F819885A6
:102320000E94FA07D82E81111AC068EC70E080E094
:1023300090E00E94010621E04A8569858F81988599
:102340000E94260DD82E81110AC0FA82FFA2CC5716
:10235000DF4F188219821A821B8280E008C0E88150
:10236000F9810480F581E02DCE0109958D2DDF9155
:10237000CF911F910F91FF90EF90DF90CF90089534
:10238000CF93DF93FC0181E891E091838083708794
:102390006783118617A220E030E080E090E0DF0143
:1023A000A20FB31F1A961C921A97582F882311F068
:1023B00040E001C048E01B964C93DC01AA0FBB1F14
:1023C000ED01C80FD91FCE0FDF1F4C854E7F4D7F0B
:1023D0004C87552311F041E001C04FE0A80FB91F11
:1023E000AE0FBF1F542F550F550F1C964C911C97C5
:1023F0004370452B1C964C9301962D5F3F4F8930BF
:10240000910569F661157105B9F0CB01A0E0B0E066
:10241000EC01CA5ADF4F28813981232B41F49B9666
:10242000AA0FBB1FA60FB71FED93FC9305C0119613
:102430000296A031B10561F7DF91CF9108950F9316
:102440001F9350E06830710551F4FA013A96EE0F8F
:10245000FF1FEE0FFF1FE80FF91F818130C06930A9
:10246000710551F4FA013A96EE0FFF1FEE0FFF1FB0
:10247000E80FF91F808123C07727660F771F635FFE
:102480007E4FFB010591149120E030E09801112767
:102490000027FA013A96EE0FFF1FEE0FFF1FE80F1D
:1024A000F91F80819181A281B381082319232A23F6
:1024B0003B2381E0012B022B032B09F480E01F91C9
:1024C0000F9108950F931F93613059F030F06230EF
:1024D00031F06330B9F468E005C062E003C066E043
:1024E00001C064E070E0FB01EE0FFF1FE60FF71F75
:1024F000E80FF91F8A014285FC016185878190857B
:102500000E94E00A1F910F910895262F642FAC01BD
:1025100048555F4FFA011082DC01A755BF4F1C924E
:10252000119638E03C93119620642C9324E030E01F
:102530000C9462126115710511F460E009C06530F8
:10254000710541F0FB01FF27EF5CFE4F64916C5F6A
:102550000C94851208959F92AF92BF92CF92DF9212
:10256000EF92FF920F931F93CF93DF93EC018FA114
:10257000882309F443C07E0188EAE80EF11C88E054
:10258000F70180835E01F9EAAF0EB11CF5011082FC
:102590006E01FAEACF0ED11C8FE0F60180838E0126
:1025A00005551F4F80ECF8018083912C24E030E02A
:1025B000A701692DCE010E9462129394F4E09F124C
:1025C000F5CFF7011082F5011082F601108280E448
:1025D000F801808300E010E0FE01E00FF11F83812D
:1025E000882339F024E030E0A701602FCE010E945B
:1025F00062120F5F1F4F0430110571F7DF91CF9109
:102600001F910F91FF90EF90DF90CF90BF90AF9010
:102610009F900895362F622FFC01E855FF4F1082DE
:10262000DC01A755BF4F21E02C9311962FE02C938E
:10263000119620EC2C9311961C9211963C931196B6
:102640004C9327E030E0AF010C946212462FDC017E
:102650009596ED91FC919697309709F00994662331
:1026600039F0613041F0623049F463E070E008C055
:1026700061E070E005C062E070E002C064E070E01C
:102680000C949A122F923F924F925F926F927F9288
:102690008F929F92AF92BF92CF92DF92EF92FF9272
:1026A0000F931F93CF93DF93DC01A857BF4F09F41B
:1026B00005C12C9111962830F9F42C91EC01C60F2C
:1026C000D11D3B812317C1F02B83222309F4F6C0CF
:1026D000DF91CF911F910F91FF90EF90DF90CF90FE
:1026E000BF90AF909F908F907F906F905F904F9032
:1026F0003F902F900C9426132C9121111AC0DC01CD
:10270000A557BF4F2C91322F337109F4D7C01196C2
:102710003C91323208F4D2C0E62FF0E0F896EE0F8A
:10272000FF1FE80FF91F832F90E0922B9183808386
:10273000C5C0213009F0C2C070E0DC01A60FB71F90
:1027400013962C911397211104C020E813962C9313
:102750001397FC01E257FF4F20813196C080D12CA6
:10276000E12CF12C7601DD24CC24F22A3196008173
:1027700010E0102F002731962081022B20E030E05E
:10278000C02AD12AE22AF32A1B01220C331C220C74
:10279000331C280E391EF101C0A6D1A6E2A6F3A66D
:1027A000EB012A9603E0CC0FDD1F0A95E1F7C80F75
:1027B000D91F9C012D563F4FF901208130E0322F67
:1027C0002227AC014E565F4FFA014081242B3983FA
:1027D00028839B0153E0220F331F5A95E1F7280FFE
:1027E000391FE901CE5ADF4FAC014B565F4FFA015A
:1027F000408150E0542F44278C010C561F4FF801A4
:102800001081412B598348832296AC0149565F4F72
:10281000FA01408150E0542F44278C010A561F4F83
:10282000F8011081412B598348832A5A3F4FEC010C
:10283000C756DF4F488150E0542F44272197C88165
:102840004C2BF90151834083F10100AD11AD22AD54
:1028500033ADC016D106E206F30681F141E0ED0189
:10286000C858DF4F4883EB01A496CC0FDD1FC80F7B
:10287000D91F280139014094509460947094230129
:10288000662477244701AA24BB24842095209982BA
:102890008882011106C0CC2021F0ED01C058DF4F25
:1028A0004883111106C0DD2021F0A458BF4F81E0FC
:1028B0008C93F101C0AED1AEE2AEF3AEDF91CF9119
:1028C0001F910F91FF90EF90DF90CF90BF90AF904E
:1028D0009F908F907F906F905F904F903F902F9040
:1028E00008958F929F92AF92BF92CF92DF92EF9214
:1028F000FF920F931F93CF93DF9300D0CDB7DEB736
:102900006C01FC0187A1882309F45FC086010C5784
:102910001F4FF80180819181A281B381892B8A2B7D
:102920008B2B09F447C00E94D205F801808091806A
:10293000A280B380681979098A099B09693B7B40A9
:1029400081059105B8F5F12C81E030E2A32EB12C80
:10295000460128E8820E911CBA82A98290E0FC010F
:10296000EE0FFF1FE80FF91FEC0DFD1DE12C840198
:102970009E012F5F3F4F4285F601618587819085DB
:102980000E944B0D89819A81892B21F06F2DC60100
:102990000E944213F394F4E0FF16B9F081E0F816B8
:1029A00029F092E0F91621F087E0D6CF83E0D4CF6A
:1029B00085E0D2CF0E94D205F801608371838283C3
:1029C0009383C6010E94AB12BECF80E00F900F90A0
:1029D000DF91CF911F910F91FF90EF90DF90CF90FB
:1029E000BF90AF909F908F9008950895A1E21A2E06
:1029F000AA1BBB1BFD010DC0AA1FBB1FEE1FFF1FA3
:102A0000A217B307E407F50720F0A21BB30BE40BF2
:102A1000F50B661F771F881F991F1A9469F7609539
:102A20007095809590959B01AC01BD01CF010895F3
:102A3000EE0FFF1F0590F491E02D0994F894FFCF5D
:102A40000158025370656564204465637265617363
:102A500065642E2E2E00537065656420496E637286
:102A600065617365642E2E2E002055702E2E002079
:102A70004C6566742E2E2E002052696768742E2EC7
:102A80002E005A2075702E2E2E005A20446F776E1D
:102A90002E2E2E0000000000A3030F0525033E0389
:102AA000300381030D0A006E616E00696E66006F6F
:102AB00076660000000000BF074B07DE0D00000037
:102AC00000221177105F10711443103E1049103F1F
:062AD00010411046100049
:00000001FF
