:100000000C949E000C94C6000C94C6000C94C60080
:100010000C94C6000C94C6000C94C6000C94C60048
:100020000C94C6000C94C6000C94C6000C94C60038
:100030000C94C6000C94C6000C94C6000C94C60028
:100040000C9433060C94C6000C945B040C948D0441
:100050000C94C6000C94C6000C94C6000C94C60008
:100060000C94C6000C94C6000A436F6E74726F6CD9
:100070006C657220436F6E6E6563746564210A005F
:100080000D0A58626F7820576972656C657373202A
:100090005265636569766572204C69627261727936
:1000A0002053746172746564000D0A4F53432064D9
:1000B0006964206E6F7420737461727400000000B4
:1000C0000800020100000304070000000000000017
:1000D00000010204081020408001020408102001E1
:1000E00002040810200404040404040404020202AC
:1000F000020202030303030303000000002500289B
:10010000002B0000000000240027002A000001004E
:1001100008000200040020001000400080000000E1
:1001200000010002002000100040008000040008D0
:100130000000020304050100F402BD0411241FBEE7
:10014000CFEFD8E0DEBFCDBF11E0A0E0B1E0E0EC42
:10015000FCE202C005900D92A636B107D9F723E064
:10016000A6E6B1E001C01D92A135B207E1F711E0AA
:10017000CCE3D1E004C02297FE010E945A16C83396
:10018000D107C9F70E94E5020C945E160C9400009A
:10019000EF92FF920F931F93CF93DF9300D0CDB7D1
:1001A000DEB77C01062F142F61E0802F5A837983FC
:1001B0000E94A20761E0812F0E94A207F70100833D
:1001C0007981718312835A81538314821582168236
:1001D00017820F900F90DF91CF911F910F91FF9099
:1001E000EF900895CF93DF93EC01CB01F8942CE0CE
:1001F0002BB90E94D40684E08BB94C815D816E815D
:100200007F814F5F5F4F6F4F7F4F4C835D836E8366
:100210007F837894DF91CF910895CF93DF93EC01A2
:10022000CB01F89428E02BB90E94D4061BB84C816E
:100230005D816E817F8141505109610971094C8353
:100240005D836E837F837894DF91CF910895FC0165
:100250006481758186819781089508958EE292E088
:100260000E944F1080910001882309F45BC08091A7
:100270008201882309F456C020E040E060E08FE767
:1002800091E00E944A1440E060E08FE791E00E9414
:10029000C51364EF71E080E090E00E94AC0640E09E
:1002A00061E070E08FE791E00E94DA1364EF71E0A3
:1002B00080E090E00E94AC0640E062E070E08FE7F2
:1002C00091E00E94DA1364EF71E080E090E00E9418
:1002D000AC0640E064E070E08FE791E00E94DA1342
:1002E00064EF71E080E090E00E94AC0640E063E0E3
:1002F00070E08FE791E00E94DA1364EF71E080E034
:1003000090E00E94AC0640E061E070E08FE791E091
:100310000E94DA131092000168E670E085EA92E02C
:100320000E943E0540E064E070E08FE791E00E94AB
:100330006C138823D1F0409101015091020160912A
:10034000030170910401465F5F4F6F4F7F4F4093F1
:1003500001015093020160930301709304012AE0AC
:1003600030E085EA92E00E94210640E065E070E01E
:100370008FE791E00E946C138823D1F04091010136
:100380005091020160910301709104014A5051099A
:1003900061097109409301015093020160930301C7
:1003A000709304012AE030E085EA92E00E94210681
:1003B00040E06EE070E08FE791E00E94291388230F
:1003C00071F0609101017091020187E791E00E9454
:1003D000F20065E071E085EA92E00E946C0540E081
:1003E0006CE070E08FE791E00E942913882371F0A0
:1003F000609101017091020187E791E00E940D0177
:1004000067E171E085EA92E00E946C0540E06FE0F0
:1004100070E08FE791E00E942913882339F0609102
:1004200001017091020183E00E941A0740E063E03D
:1004300070E08FE791E00E942913882389F087E715
:1004400091E00E942701AB01BC012AE030E085EA7F
:1004500092E00E94210660E070E083E00C941A07AD
:1004600008952A9A08952A988EBD0DB407FEFDCFEF
:100470001EBC0DB407FEFDCF0E9431028EB508955B
:100480002A9882608EBD0DB407FEFDCF6EBD0DB4FF
:1004900007FEFDCF0C94310288EF0E943302807C6E
:1004A0008034A1F018F4882301F10895803819F000
:1004B000803CB9F0089588ED0E94330281FD0BC0A5
:1004C00069EC88ED0E94400282E00CC088ED0E9439
:1004D000330281FDF5CF6BEC88ED0E94400283E092
:1004E00001C081E080936601089561ED88ED0E946E
:1004F00040021092660108950F931F93CF93DF93EC
:100500008C01229A0E943102259A239A2498229AD9
:1005100080E58CBD81E08DBD219868E188E80E946E
:10052000400260E288E70E94400260E088E70E94A3
:100530004002C0E0D0E088E60E943302219680FDB0
:1005400006C0CF3F8FEFD807B1F78FEF1DC061EC2A
:1005500088ED0E94400260E680ED0E94400264E067
:1005600088EE0E94400288EE0E94330282FFFBCF99
:10057000C8010E944C0260E288EC0E94400261E0E7
:1005800080E80E94400280E0DF91CF911F910F919F
:10059000089526E040E052EC61E070E085EA92E0E8
:1005A0000E94F9038EE292E00E947C028F3F39F4B0
:1005B00069EA70E085EA92E00E943E05FFCF60E8BC
:1005C00070E085EA92E00C943E050E94DF060E94EE
:1005D0002D010E94C902C3E4D3E00E942E0120979E
:1005E000E1F30E944303F9CF8EE292E00E941108EA
:1005F0006EE272E08FE791E00E94CA1242E050E0A2
:1006000063E070E087E791E00E94C80044E050E0BA
:1006100065E070E08FE691E00E94C80046E050E09F
:1006200067E070E087E691E00C94C800FC01818DE2
:10063000228D90E0805C9F4F821B91098F739927D8
:100640000895FC01918D828D981731F0828DE80F0D
:10065000F11D858D90E008958FEF9FEF0895FC01C7
:10066000918D828D981761F0828DDF01A80FB11DE9
:100670005D968C91928D9F5F9F73928F90E008950D
:100680008FEF9FEF089583EB94E0892B49F080E092
:1006900090E0892B29F00E94B30481110C94000092
:1006A0000895FC01848DDF01A80FB11DA35ABF4F2F
:1006B0002C91848D90E001968F739927848FA68961
:1006C000B7892C93A089B1898C9180648C93938D88
:1006D000848D981306C00288F389E02D80818F7D78
:1006E00080830895CF93DF93EC01888D8823C9F030
:1006F000EA89FB89808185FD05C0A889B9898C912B
:1007000086FD0FC00FB607FCF5CF808185FFF2CFC5
:10071000A889B9898C9185FFEDCFCE010E94510344
:10072000E7CFDF91CF910895CF92DF92FF920F93A1
:100730001F93CF93DF931F92CDB7DEB76C0181E09B
:10074000D60158968C9358975B969C915B975C96D4
:100750008C915C97981307C05096ED91FC9151973E
:10076000808185FD2EC0F601038D10E00F5F1F4FC5
:100770000F731127F02EF601848DF81211C00FB6F9
:1007800007FCF9CFD6015096ED91FC9151978081ED
:1007900085FFF1CFC60169830E9451036981EBCFC8
:1007A000838DE80FF11DE35AFF4F6083D6015B96FE
:1007B0000C935B975296ED91FC91539780818062E8
:1007C0000CC0D6015696ED91FC91579760835096D8
:1007D000ED91FC91519780818064808381E090E06D
:1007E0000F90DF91CF911F910F91FF90DF90CF90ED
:1007F0000895BF92CF92DF92EF92FF92CF93DF9353
:10080000EC016A017B01B22EE889F98982E08083DC
:10081000411581EE580761057105A1F060E079E0AE
:100820008DE390E0A70196010E9436162150310910
:10083000410951095695479537952795211580E12E
:10084000380798F0E889F989108260E874E88EE149
:1008500090E0A70196010E94361621503109410906
:1008600051095695479537952795EC85FD85308339
:10087000EE85FF852083188EEC89FD89B082EA8998
:10088000FB89808180618083EA89FB89808188601F
:100890008083EA89FB89808180688083EA89FB897B
:1008A00080818F7D8083DF91CF91FF90EF90DF90EB
:1008B000CF90BF9008951F920F920FB60F92112400
:1008C0002F938F939F93EF93FF93E091B502F09155
:1008D000B6028081E091BB02F091BC0282FD12C0A1
:1008E00090818091BE028F5F8F732091BF0282172B
:1008F00051F0E091BE02F0E0EB55FD4F958F8093F3
:10090000BE0201C08081FF91EF919F918F912F9145
:100910000F900FBE0F901F9018951F920F920FB659
:100920000F9211242F933F934F935F936F937F9375
:100930008F939F93AF93BF93EF93FF9385EA92E0DA
:100940000E945103FF91EF91BF91AF919F918F91C1
:100950007F916F915F914F913F912F910F900FBEBB
:100960000F901F90189585EA92E00E94160321E0EF
:10097000892B09F420E0822F08951092A80210928A
:10098000A70288EE93E0A0E0B0E08093A9029093E4
:10099000AA02A093AB02B093AC0288E291E09093DC
:1009A000A6028093A50285EC90E09093B20280931A
:1009B000B10284EC90E09093B4028093B30280EC97
:1009C00090E09093B6028093B50281EC90E0909312
:1009D000B8028093B70282EC90E09093BA028093C1
:1009E000B90286EC90E09093BC028093BB02109217
:1009F000BE021092BF021092C0021092C10208956E
:100A0000CF92DF92EF92FF920F931F93CF93DF93DA
:100A10007C016A01EB0100E010E00C151D0571F08E
:100A20006991D701ED91FC910190F081E02DC70112
:100A30000995892B19F00F5F1F4FEFCFC801DF9188
:100A4000CF911F910F91FF90EF90DF90CF9008957D
:100A50006115710581F0DB010D900020E9F7AD0112
:100A600041505109461B570BDC01ED91FC9102806E
:100A7000F381E02D099480E090E00895EF92FF92D9
:100A80000F931F93CF93DF938C017B01C0E0D0E0E5
:100A9000F701EC0FFD1F6491662359F0F801A08166
:100AA000B181ED91FC91C8010995892B11F0219636
:100AB000EFCFCE01DF91CF911F910F91FF90EF907B
:100AC0000895DC01ED91FC910190F081E02D0994F5
:100AD00064E371E00C9428050F931F93CF93DF9389
:100AE000EC010E9428058C01CE010E946805800F50
:100AF000911FDF91CF911F910F9108958F929F9237
:100B0000AF92BF92CF92DF92EF92FF920F931F931B
:100B1000CF93DF93CDB7DEB7A1970FB6F894DEBFC2
:100B20000FBECDBF7C01C42EE52FCB01D22E19A262
:100B300021E02D1510F02AE0D22E8E010F5D1F4FFF
:100B40008D2C912CA12CB12C6C2D7E2FA501940104
:100B50000E9436168C2DD29E801911240150110945
:100B60008A3014F4805D01C0895CF801808321150E
:100B700031054105510521F0C22EE32FCA01E4CF12
:100B8000B801C7010E942805A1960FB6F894DEBFF0
:100B90000FBECDBFDF91CF911F910F91FF90EF90CE
:100BA000DF90CF90BF90AF909F908F900895CF929D
:100BB000DF92EF92FF920F931F93CF93DF93EC019D
:100BC0006A017B012115310579F4E881F9810190F1
:100BD000F081E02D642FDF91CF911F910F91FF9055
:100BE000EF90DF90CF9009942A303105E9F477FF38
:100BF0001AC06DE20E9461058C0144275527BA0195
:100C00004C195D096E097F092AE0CE010E947E051C
:100C1000800F911FDF91CF911F910F91FF90EF9067
:100C2000DF90CF9008952AE0B701A601CE01DF91B1
:100C3000CF911F910F91FF90EF90DF90CF900C9488
:100C40007E050F931F93CF93DF93EC010E94D7058E
:100C50008C01CE010E946805800F911FDF91CF911A
:100C60001F910F9108951F920F920FB60F921124AA
:100C70002F933F938F939F93AF93BF9380914303A1
:100C800090914403A0914503B091460330914203F3
:100C900023E0230F2D3720F40196A11DB11D05C0BF
:100CA00026E8230F0296A11DB11D209342038093D5
:100CB000430390934403A0934503B093460380916C
:100CC000470390914803A0914903B0914A030196CC
:100CD000A11DB11D8093470390934803A09349033E
:100CE000B0934A03BF91AF919F918F913F912F9104
:100CF0000F900FBE0F901F9018952FB7F89460912A
:100D000043037091440380914503909146032FBFA4
:100D100008953FB7F8948091470390914803A091BC
:100D20004903B0914A0326B5A89B05C02F3F19F08F
:100D30000196A11DB11D3FBF6627782F892F9A2FDD
:100D4000620F711D811D911D42E0660F771F881F84
:100D5000991F4A95D1F70895CF92DF92EF92FF92B3
:100D6000CF93DF936B017C010E948906EB01C114D4
:100D7000D104E104F10489F00E9435160E9489062D
:100D80006C1B7D0B683E734090F381E0C81AD1085C
:100D9000E108F108C851DC4FEACFDF91CF91FF9015
:100DA000EF90DF90CF9008958230910538F0880F52
:100DB000991F880F991F05970197F1F70895789467
:100DC00084B5826084BD84B5816084BD85B5826050
:100DD00085BD85B5816085BDEEE6F0E080818160EE
:100DE0008083E1E8F0E010828081826080838081EE
:100DF00081608083E0E8F0E0808181608083E1EBC6
:100E0000F0E0808184608083E0EBF0E080818160AD
:100E10008083EAE7F0E08081846080838081826063
:100E2000808380818160808380818068808310924C
:100E3000C10008951F93CF93DF93182FEB0161E05A
:100E40000E94A207209711F460E004C0CF3FD105B3
:100E500039F461E0812FDF91CF911F910C94DB0772
:100E6000E12FF0E0E354FF4FE491E330F9F048F470
:100E7000E130B9F0E230A1F584B5806284BDC8BD2F
:100E800034C0E730E9F0E83019F1E43049F58091F9
:100E90008000806280938000D0938B00C0938A0092
:100EA00024C084B5806884BDC7BD1FC08091800008
:100EB000806880938000D0938900C093880015C01B
:100EC0008091B00080688093B000C093B3000DC0E3
:100ED0008091B00080628093B000C093B40005C0E0
:100EE000C038D1050CF0B5CFAFCFDF91CF911F91B6
:100EF0000895833081F028F4813099F08230A1F098
:100F000008958730A9F08830B9F08430D1F4809109
:100F100080008F7D03C0809180008F778093800058
:100F2000089584B58F7702C084B58F7D84BD089500
:100F30008091B0008F7703C08091B0008F7D809347
:100F4000B0000895CF93DF9390E0FC01EF52FF4F84
:100F50002491FC01EB51FF4F8491882349F190E0EB
:100F6000880F991FFC01ED5FFE4FA591B49187504A
:100F70009F4FFC01C591D4919FB7611108C0F894AF
:100F80008C91209582238C93888182230AC06230C1
:100F900051F4F8948C91322F309583238C9388816F
:100FA000822B888304C0F8948C91822B8C939FBFF2
:100FB000DF91CF9108950F931F93CF93DF931F92EB
:100FC000CDB7DEB7282F30E0F901E354FF4F84910D
:100FD000F901EF52FF4F1491F901EB51FF4F0491CA
:100FE0000023C9F0882321F069830E947907698171
:100FF000E02FF0E0EE0FFF1FE750FF4FA591B491F7
:101000009FB7F8948C91611103C01095812301C0A2
:10101000812B8C939FBF0F90DF91CF911F910F91E8
:101020000895FC0187E491E0918380831582108606
:1010300081E0818712869F012E5F3F4F3783268391
:10104000128288E083838CE3848380E090E041E037
:10105000DF01A80FB91F1D961C921D971E964C9379
:101060001E971F961C921F971C963C932E931B97BE
:1010700005968B34910561F7EA58FF4F108281E1A4
:1010800080934F03089520E030E041E0FC01E20F3F
:10109000F31F5585561739F04F5F2B5F3F4F403197
:1010A000A9F780E00895842F0895EF92FF921F938F
:1010B000CF93DF9300D0CDB7DEB77C01162F67FD4D
:1010C0005FC0283008F05CC0442331F0DC01159685
:1010D0008C91873009F454C060E0C7012A834983AA
:1010E0000E9443082A814981882309F449C0E82FD6
:1010F000F0E0111123C085E08E9FD0018F9FB00DCD
:101100001124AE0DBF1D442359F081E418968C9331
:10111000D70115968C9115978F5F15968C9303C008
:1011200081E018968C9385E08E9FD0018F9FB00D43
:101130001124AE0DBF1D18968C9123C0612F6770CE
:10114000660F660F660F442361F06064D701159641
:101150008C9115978F5F15968C938770687F682B9D
:1011600003C02770687B622B85E08E9FD0018F9F24
:10117000B00D1124AE0DBF1D18966C93862F01C0C3
:1011800080E00F900F90DF91CF911F91FF90EF9033
:101190000895CF93DF93EC01662359F00E94430832
:1011A000882349F09E0145E0849F200D311D1124C4
:1011B000C901069602C080E090E0DF91CF910895CA
:1011C000CF93DF931F92CDB7DEB749830E94C90842
:1011D0004981009789F0DC01ED91FC9111973097DE
:1011E00059F013969C9180E0891731F020812417E3
:1011F00031F033968F5FF8CF80E090E001C0CF01EF
:101200000F90DF91CF910895EF92FF921F93CF93AC
:10121000DF931F92CDB7DEB7162F79012115310567
:1012200069F049830E94C908FC014981009741F097
:101230001283F182E082438380E003C088ED01C025
:1012400086ED0F90DF91CF911F91FF90EF90089561
:101250002A980895CF93DF931F92CDB7DEB7898385
:101260000E94280989818EBD0DB407FEFDCF1EBCEA
:101270000DB407FEFDCF0E9431028EB50F90DF91B5
:10128000CF910895CF93DF9300D0CDB7DEB76A83B7
:1012900089830E942809898182608EBD6A810DB48C
:1012A00007FEFDCF6EBD0DB407FEFDCF0F900F9072
:1012B000DF91CF910C9431028F929F92BF92CF9287
:1012C000DF92EF92FF920F931F93CF93DF931F92C2
:1012D000CDB7DEB74C01B62E690149830E94C9081B
:1012E0007C014981009709F443C0FC018081918110
:1012F000892B09F43FC06B2DC4010E94E008F60160
:10130000918380830097C1F1FC0122812695269567
:10131000822F90E0409764F441E050E060E070E09C
:1013200004C0440F551F661F771F2A95D2F702C0CD
:1013300040E050E841505109F801518340836B2D42
:1013400080EE0E94420988ED0E942A09F7019481EB
:10135000992339F0F401EA58FF4F60816260682BED
:1013600002C0682F697F88ED0E94420980E005C0B5
:1013700086ED03C087ED01C08BED0F90DF91CF911B
:101380001F910F91FF90EF90DF90CF90BF909F90B3
:101390008F9008958F929F92AF92BF92CF92DF92DB
:1013A000EF92FF920F931F93CF93DF931F92CDB7CE
:1013B000DEB7A62E890149830E947D066B017C0160
:1013C00088E8C80E83E1D81EE11CF11C812C912C09
:1013D000B12C20E04981A42A29830E947D066C1942
:1013E0007D098E099F09298197FF2DC06A2D80EF05
:1013F0000E9442090E947D066C197D098E099F0991
:1014000097FF09C088EC0E942A0987FFF3CF60E8A4
:1014100088EC0E94420988EF0E942A09282F2F7029
:10142000243019F02E3059F00EC0EFEF8E1A9E0ABC
:101430000115110589F28016910671F604C0B39466
:10144000F3E0BF12C9CF822F0F90DF91CF911F9190
:101450000F91FF90EF90DF90CF90BF90AF909F9053
:101460008F9008959F92AF92BF92CF92DF92EF92AA
:10147000FF920F931F93CF93DF937C01B42E122F13
:10148000AA24A394DC01A60FB11DA60FB11D6D0106
:1014900086E5C80ED11CC42FD0E0AB96CC0FDD1F63
:1014A000CE0DDF1DD6018D919C91DC01ED91FC915B
:1014B0000280F381E02D202F412F6B2D0995803E76
:1014C000C1F4B1100BC061E088EE0E94420966E6EB
:1014D00070E080E090E00E94AC0615C088819981A0
:1014E000DC01ED91FC910284F385E02D612F0995DB
:1014F0000AC08D3031F48FEF8A0D833008F042C07E
:1015000017C0811142C0F60180819181DC01ED910B
:10151000FC910190F081E02D202F412F6B2D09953A
:10152000982EBDE08B130CC08FEF8A0D833050F4E2
:1015300064E670E080E090E00E94AC06A394B2CF35
:10154000882311F1B1100BC061E088EE0E944209BE
:1015500066E670E080E090E00E94AC0611C0EB2DE2
:10156000F0E0BB96EE0FFF1FEE0DFF1D8081918115
:10157000DC01ED91FC910284F385E02D612F09954A
:10158000892D03C08DE001C080E0DF91CF911F91D4
:101590000F91FF90EF90DF90CF90BF90AF909F9012
:1015A00008950F931F93CF93DF9300D0CDB7DEB78D
:1015B0008A016A8389830E942809898182608EBD9D
:1015C000F8016A81862F882339F00DB407FEFDCF1C
:1015D00091919EBD8150F7CF060F111D0DB407FEEE
:1015E000FDCF0E943102C8010F900F90DF91CF9183
:1015F0001F910F9108952F923F924F925F926F9299
:101600007F928F929F92AF92BF92CF92DF92EF9292
:10161000FF920F931F93CF93DF9300D000D01F92C0
:10162000CDB7DEB77D836C835A016901FB01218050
:101630008FEF820D803408F06FC00E947D062B0171
:101640003C01F8E84F0EF3E15F1E611C711CEC8158
:10165000FD81828180FF02C060E801C060E488EE05
:101660000E94420920E0312CC114D10409F444C085
:1016700076012C143D0408F47101EA82A8016E2D54
:1016800080E10E94D10A6E2D88E30E944209EC811C
:10169000FD816081606280EF0E94420988EC0E94B7
:1016A0002A0987FFFBCF60E888EC0E94420988EF97
:1016B0000E942A09282F2F70812C912C1982222315
:1016C00009F46BC02B830E947D0664197509860995
:1016D00097092B8197FF61C0263001F12E3009F464
:1016E00056C0243049F4FFEF8F1A9F0AA114B104A9
:1016F00059F18A149B0441F588EF2B830E942A0933
:1017000085FB882780F9EC81FD81928180FB90F92F
:1017100092832B81822F46C08AED44C088EF0E94BD
:101720002A0985FB882780F991E08927EC81FD81D2
:10173000928180FB90F9928390FF02C060E801C023
:1017400060E488EE0E94420960E088E30E9442095A
:10175000F801608180E10E9442096A8188E30E9469
:101760004209EC81FD816081606280EF0E94420944
:1017700088EC0E942A0987FFFBCF60E888EC0E9472
:10178000420988EF0E942A09282F2F7098CF89815B
:101790008F5F89838330C1F6AFCFCE18DF080E0D7F
:1017A0001F1D62CF0F900F900F900F900F90DF9141
:1017B000CF911F910F91FF90EF90DF90CF90BF904E
:1017C000AF909F908F907F906F905F904F903F90E1
:1017D0002F900895AF92BF92CF92DF92EF92FF9237
:1017E0000F931F93CF93DF9300D000D0CDB7DEB718
:1017F0007C01690158011C821B821A8219828E01A8
:101800000F5F1F4F9E012D5F3F4F0E945C098111AA
:1018100009C049815A816B817C8185019601C7018C
:101820000E94FB0A0F900F900F900F90DF91CF91C5
:101830001F910F91FF90EF90DF90CF90BF90AF90EE
:1018400008952F923F924F925F926F927F928F9264
:101850009F92AF92BF92CF92DF92EF92FF920F933F
:101860001F93CF93DF93CDB7DEB729970FB6F894C8
:10187000DEBF0FBECDBF4C01798768875C834B8389
:101880006901F901A080B180FB01F181FA83F901BE
:1018900011821082FB01828181FF02C060E201C0DF
:1018A00060E188EE0E9442092E2C312C412C512CF3
:1018B000AD822B813C81E885F985408160E0C401DF
:1018C0000E94CA0989838630B1F488EF0E942A09F0
:1018D00082958170F1E08F27E885F985928180FB00
:1018E00091F9928391FF02C060E201C060E188EE4D
:1018F0000E944209DECF9981911162C088EC0E945A
:101900002A0982FF5BC080E30E942A09F82E282F53
:1019100030E0A216B30608F4FD80F6012081318183
:101920006F2C712CA501421B530B57FF02C040E0E6
:1019300050E09301461557050CF49A012E833F831E
:101940000E942809F8E0FEBD3F812E810DB407FEFC
:10195000FDCFF801822F800F8E1739F01EBC0DB419
:1019600007FEFDCF4EB54193F7CF020F131F0E9424
:10197000310264E088EC0E944209F6012081318145
:10198000260D371D31832083FA81FF1618F02A15A2
:101990003B0560F088EF0E942A0982958170E885F6
:1019A000F985928180FB91F992830AC0EE2009F4B7
:1019B00080CFC201B1010E94AC067BCF90EF99832A
:1019C000898129960FB6F894DEBF0FBECDBFDF9197
:1019D000CF911F910F91FF90EF90DF90CF90BF902C
:1019E000AF909F908F907F906F905F904F903F90BF
:1019F0002F9008952F923F924F925F926F927F9215
:101A00008F929F92AF92BF92CF92DF92EF92FF920E
:101A10000F931F93CF93DF93CDB7DEB762970FB6C7
:101A2000F894DEBF0FBECDBF3C01F42E322E202E27
:101A30005C2D4FA058A4C9A4DAA4188A1F861E865C
:101A40001D868E01035F1F4F9E01215F3F4F598B03
:101A50000E945C095989811194C039822A82EB82E3
:101A60005C83BE82AD8298868F82AE014F5F5F4FEE
:101A700068E080E20E94D10A2D853E854F2D60E10D
:101A8000C3010E94CA09182F81117AC0232C221C7D
:101A90002224221CC114D10409F466C0EF85F88900
:101AA0008281222009F453C082608283540133244E
:101AB0003394A114B10409F455C05C864B864D855E
:101AC0005E856F857889E12C86019E01255F3F4FF9
:101AD000C3010E94210C182F8630B1F42F8538895C
:101AE00088EF298B3A8B0E942A0985FB882780F989
:101AF000832529893A89D90112969C91129780FBF6
:101B000091F912969C93D5CF81113AC0EBA5FCA513
:101B10003097A1F00190F081E02D0190F081E02D4F
:101B2000C4018A199B099A8789876B857C859E01E8
:101B3000275F3F4FA6018BA59CA509958B859C85AA
:101B4000A81AB90A8415950508F0B3CF0DC08160B5
:101B500082834D855E8586019201BF01C3010E948B
:101B6000FB0A182F11110CC02D853E85222011F083
:101B700060EA01C060E84F2DC3010E94CA0901C09C
:101B8000812F62960FB6F894DEBF0FBECDBFDF91F6
:101B9000CF911F910F91FF90EF90DF90CF90BF906A
:101BA000AF909F908F907F906F905F904F903F90FD
:101BB0002F9008958F929F92AF92BF92CF92EF9203
:101BC0000F931F931F921F921F930F933F932F9377
:101BD0004901A12CB12CCC24C394E12C06E020E8CF
:101BE0000E94FA0C0F900F900F900F900F900F9093
:101BF0001F910F91EF90CF90BF90AF909F908F90DB
:101C000008958F929F92AF92BF92CF92EF920F93CF
:101C1000CF931F921F921F921F921F921F92812C8F
:101C2000912CA12CB12CC12CE22E05E020E00E94C9
:101C3000FA0CC82F6CE271E080E090E00E94AC06E4
:101C40000F900F900F900F900F900F908C2FCF91BF
:101C50000F91EF90CF90BF90AF909F908F9008958D
:101C60008F929F92AF92BF92CF92EF920F931F925B
:101C70001F921F921F921F921F92812C912CA12CB8
:101C8000B12CC12CE22E09E020E00E94FA0C0F904A
:101C90000F900F900F900F900F900F91EF90CF90AB
:101CA000BF90AF909F908F9008958F929F92AF9228
:101CB000BF92CF92DF92EF920F931F93CF93DF9358
:101CC00000D000D0CDB7DEB76C01590148011C82AD
:101CD0001B821A8219828E010F5F1F4F9E012D5F9A
:101CE0003F4F0E945C09811109C049815A816B8173
:101CF0007C8184019501C6010E94210C0F900F90F8
:101D00000F900F90DF91CF911F910F91EF90DF9087
:101D1000CF90BF90AF909F908F900895CF92DF9219
:101D2000FF920F931F93CF93DF9300D0CDB7DEB711
:101D30006C01662309F442C0062F10E085E0689F1D
:101D4000B0011124F601E60FF71F8085282F2770B8
:101D500086FF19C031E065E0F62EF601F39EE00D36
:101D6000F11D11248085869586958695877082174A
:101D7000E1F03F5F303188F3F6018581821303C0C3
:101D80002150F601258385E0809FF001819FF00DB1
:101D90001124EC0DFD1D108681E08187128682E002
:101DA000C80ED11CD782C68209C0632FC6012A8300
:101DB00039830E948E0E2A813981CFCF0F900F90E8
:101DC000DF91CF911F910F91FF90DF90CF900895F9
:101DD000CF93DF93EC016134A1F4FC01855B9F4F4D
:101DE00041E09E012E5F3F4F158646871786348758
:101DF00023873596E817F907B9F71D82DF91CF9150
:101E000008950E944308682FCE01DF91CF910C9472
:101E10008E0E0F931F93CF93DF93EC01022FCA3FD7
:101E20008FEFD80711F486ED29C08E819F81892B11
:101E300001F12A87242F40E0CE010E945508182F77
:101E40008823C9F0682FCE010E94C908009759F372
:101E5000FC010483212F40E060E0CE010E94010ECE
:101E6000082F882351F0612FCE010E94E80E802FA9
:101E700005C087ED03C084ED01C080E0DF91CF9104
:101E80001F910F9108952F923F924F925F926F9200
:101E90007F928F929F92AF92BF92CF92DF92EF92FA
:101EA000FF920F931F93CF93DF93CDB7DEB7669763
:101EB0000FB6F894DEBF0FBECDBF7C01862E742E08
:101EC000922E1B8A88E08C8B8CE38D8BD701ED9151
:101ED000FC910190F081E02D60E0C70109956C0153
:101EE000009709F4ABC0FC01A080B180CE014396FD
:101EF0009183808394828E010F5F1F4F22E130E037
:101F000040E060E0C7010E94DA0DD601AD92BC92BC
:101F10008111ACC029843A844B845C84BD81BE8B22
:101F20001E815701612C6501E6E5CE0ED11CD6015C
:101F30008D919C91009789F1DC01ED91FC910084D9
:101F4000F185E02D0995811128C0F60180819181EC
:101F5000DC01ED91FC910088F189E02D612F09955C
:101F60008823D9F0F60180819181DC01ED91FC910B
:101F70000484F585E02DA201B1010995811160C0AD
:101F8000F60180819181DC01ED91FC910684F78559
:101F9000E02D6E890995811153C06394B2E0AB0EB8
:101FA000B11CE0E16E12BFCF5701612C6501F6E56F
:101FB000CF0ED11CD6018D919C91009789F1DC0147
:101FC000ED91FC910084F185E02D0995811128C0E7
:101FD000F60180819181DC01ED91FC910088F1890D
:101FE000E02D612F09958823B1F1F601808191815F
:101FF000DC01ED91FC910484F585E02DA201B10195
:10200000099581110DC0F60180819181DC01ED916E
:10201000FC910684F785E02D6E8909958823D9F017
:102020006394B2E0AB0EB11CE0E16E12BFCF292D7C
:10203000472D682DC7010E94090F18C086ED16C0F4
:10204000092D272D482D662DC7010E94320A813D9A
:1020500009F4A3CF0BC0092D272D482D662DC701EC
:102060000E94320A982F977F913DD1F266960FB663
:10207000F894DEBF0FBECDBFDF91CF911F910F91BE
:10208000FF90EF90DF90CF90BF90AF909F908F9098
:102090007F906F905F904F903F902F900895FF92A8
:1020A0000F931F93CF93DF93EC0119990EC088EC27
:1020B0000E942A0985FF05C0CE010E944C0260E201
:1020C00001C060E088EC0E94420980916601813085
:1020D00051F058F0823029F0833039F5FF24F39421
:1020E0000DC0F12C0BC083E106C080914F03807FAF
:1020F0008031D9F081E180934F0317C080914F0365
:10210000807F803199F40E947D0668537F4F8F4F06
:102110009F4F60934B0370934C0380934D039093B8
:102120004E0380E280934F0301C0F12C00E010E0E9
:10213000FE01E00FF11FEA5AFF4F80819181009765
:1021400039F0DC01ED91FC910680F781E02D0995D5
:102150000E5F1F4F0032110559F780914F038034F5
:1021600009F446C070F4803269F18033D9F18131CD
:1021700009F088C0FE01EA58FF4F108200E010E02D
:102180000AC0813509F45AC0803809F46AC0803524
:1021900009F078C03CC0FE01E00FF11FEA5AFF4F82
:1021A00080819181009739F0DC01ED91FC910480F0
:1021B000F581E02D09950E5F1F4F0032110559F78B
:1021C00082E15EC00E947D0600914B0310914C039A
:1021D00020914D0330914E03601B710B820B930BCA
:1021E00097FD50C061E088EE0E94420980E448C03B
:1021F00088EE0E942A0980FD45C088ED0E942A09C8
:10220000682F686088ED0E94420980E539C088EC3B
:102210000E942A0986FF36C081E580934F030E9401
:102220007D066C5E7F4F8F4F9F4F60934B03709383
:102230004C0380934D0390934E0324C00E947D066F
:1022400000914B0310914C0320914D0330914E03AC
:10225000601B710B820B930B97FD14C080E8809379
:102260004F032F2D40E060E0CE010E94430F8823F2
:1022700031F0823D39F08093500380EA01C080E95B
:1022800080934F03DF91CF911F910F91FF9008959D
:10229000089580E0089581E00895FC018185089506
:1022A000FC0187A108956E3584E0780739F06D3A16
:1022B0008BE1780719F06E32764149F4493187E0B5
:1022C000580711F481E0089541395240D9F380E074
:1022D0000895CF93DF93EC011A821B821C821D822A
:1022E0001E828F819885DC01ED91FC910480F5813F
:1022F000E02D6985099519861FA280E0DF91CF91B5
:1023000008956F927F928F929F92AF92BF92CF92D9
:10231000DF92EF92FF920F931F93CF93DF93CDB78E
:10232000DEB763970FB6F894DEBF0FBECDBF7C015A
:10233000762E642EDC011796AD90BC9018971996F6
:102340008C9181116DC0D501ED91FC910190F081CE
:10235000E02D60E0C5012B8B09956C012B8900975E
:1023600009F460C0FC01808091808114910409F41B
:102370005BC0C7010A969183808324838E010F5F1F
:102380001F4F22E130E040E060E0D70117968D91C9
:102390009C9118970E94DA0D182FF6019182808285
:1023A00081112FC089859A85EB85FC858E3524E0C7
:1023B000920739F08D3AABE19A0719F08E329641C7
:1023C00021F5E93127E0F20719F0E139F240E9F4AB
:1023D000D501ED91FC910280F381E02D262D40E0A6
:1023E000672DC5010995F70181878823F9F0888554
:1023F000838764E170E080E090E00E94AC0680EEAC
:1024000016C08D3019F011EE01C011EDD701ED911C
:10241000FC910480F581E02DC7010995812F07C04B
:1024200089ED05C086ED03C087ED01C084ED63969C
:102430000FB6F894DEBF0FBECDBFDF91CF911F91D5
:102440000F91FF90EF90DF90CF90BF90AF909F9053
:102450008F907F906F900895CF92DF92EF92FF92CE
:102460000F931F93CF93DF93EC01C22E0F8118853A
:10247000D801ED91FC910190F081E02D6985C801B2
:1024800009957C01009711F486ED7BC06CE271E048
:1024900080E090E00E94AC06298540E060E08F81FA
:1024A00098850E94010ED82E882319F0F701148216
:1024B00060C0D70114961C92D801ED91FC91019057
:1024C000F081E02D6985C80109950097E9F2FC01CA
:1024D000C4828E01065F1F4F980141E069858F819C
:1024E00098850E940409D82E811143C0FF24F394DB
:1024F000FD8633E027E090E29E8784E08F87F88AAC
:10250000998B8A8B3B8B9C8B8D8B3E8B9F8B888F83
:1025100035E0398F9A8F8B8F3C8F9D8F8E8F2F8FC9
:1025200098A389A32AA39BA38CA3980149E069855A
:102530008F8198850E940409D82E81111AC068ECF9
:1025400070E080E090E00E94AC0621E04A85698559
:102550008F8198850E94300ED82E81110AC0FA8290
:10256000FFA2CC57DF4F188219821A821B8280E0AB
:1025700008C0E881F9810480F581E02DCE0109953C
:102580008D2DDF91CF911F910F91FF90EF90DF90F4
:10259000CF900895CF93DF93FC0181E591E0918383
:1025A000808370876783118617A220E030E080E087
:1025B00090E0DF01A20FB31F1A961C921A97582FB2
:1025C000882311F040E001C048E01B964C93DC01E9
:1025D000AA0FBB1FED01C80FD91FCE0FDF1F4C85FF
:1025E0004E7F4D7F4C87552311F041E001C04FE0F5
:1025F000A80FB91FAE0FBF1F542F550F550F1C96B4
:102600004C911C974370452B1C964C9301962D5F63
:102610003F4F8930910569F661157105B9F0CB011D
:10262000A0E0B0E0EC01CA5ADF4F28813981232BAA
:1026300041F49B96AA0FBB1FA60FB71FED93FC9307
:1026400005C011960296A031B10561F7DF91CF91D7
:1026500008950F931F9350E06830710551F4FA010B
:102660003A96EE0FFF1FEE0FFF1FE80FF91F818153
:1026700030C06930710551F4FA013A96EE0FFF1F30
:10268000EE0FFF1FE80FF91F808123C07727660F29
:10269000771F635F7E4FFB010591149120E030E0CE
:1026A000980111270027FA013A96EE0FFF1FEE0F4F
:1026B000FF1FE80FF91F80819181A281B381082358
:1026C00019232A233B2381E0012B022B032B09F43E
:1026D00080E01F910F91089550E06830710531F44A
:1026E000840F951FFC01E458FF4F08C06930710545
:1026F00051F4840F951FFC01E058FF4F808188231F
:1027000001F110820895FB01FF27EE0FFF1FE35F29
:10271000FE4F25913491440F551F480F591FFA0160
:10272000E85BFF4F40815181B9016423752381E04B
:10273000672B09F480E020953095242335233183DD
:10274000208308950F931F93613059F030F0623069
:1027500031F06330B9F468E005C062E003C066E0C0
:1027600001C064E070E0FB01EE0FFF1FE60FF71FF2
:10277000E80FF91F8A014285FC01618587819085F8
:102780000E94EA0B1F910F910895262F642FAC0130
:1027900048555F4FFA011082DC01A755BF4F1C92CC
:1027A000119638E03C93119620642C9324E030E09D
:1027B0000C94A2136115710511F460E009C0653035
:1027C000710541F0FB01FF27EF5CFE4F64916C5FE8
:1027D0000C94C51308959F92AF92BF92CF92DF924F
:1027E000EF92FF920F931F93CF93DF93EC018FA192
:1027F000882309F443C07E0188EAE80EF11C88E0D2
:10280000F70180835E01F9EAAF0EB11CF501108279
:102810006E01FAEACF0ED11C8FE0F60180838E01A3
:1028200005551F4F80ECF8018083912C24E030E0A7
:10283000A701692DCE010E94A2139394F4E09F1288
:10284000F5CFF7011082F5011082F601108280E4C5
:10285000F801808300E010E0FE01E00FF11F8381AA
:10286000882339F024E030E0A701602FCE010E94D8
:10287000A2130F5F1F4F0430110571F7DF91CF9145
:102880001F910F91FF90EF90DF90CF90BF90AF908E
:102890009F900895362F622FFC01E855FF4F10825C
:1028A000DC01A755BF4F21E02C9311962FE02C930C
:1028B000119620EC2C9311961C9211963C93119634
:1028C0004C9327E030E0AF010C94A213462FDC01BB
:1028D0009596ED91FC919697309709F009946623AF
:1028E00039F0613041F0623049F463E070E008C0D3
:1028F00061E070E005C062E070E002C064E070E09A
:102900000C94DA132F923F924F925F926F927F92C4
:102910008F929F92AF92BF92CF92DF92EF92FF92EF
:102920000F931F93CF93DF93DC01A857BF4F09F498
:1029300005C12C9111962830F9F42C91EC01C60FA9
:10294000D11D3B812317C1F02B83222309F4F6C04C
:10295000DF91CF911F910F91FF90EF90DF90CF907B
:10296000BF90AF909F908F907F906F905F904F90AF
:102970003F902F900C9466142C9121111AC0DC0109
:10298000A557BF4F2C91322F337109F4D7C0119640
:102990003C91323208F4D2C0E62FF0E0F896EE0F08
:1029A000FF1FE80FF91F832F90E0922B9183808304
:1029B000C5C0213009F0C2C070E0DC01A60FB71F0E
:1029C00013962C911397211104C020E813962C9391
:1029D0001397FC01E257FF4F20813196C080D12C24
:1029E000E12CF12C7601DD24CC24F22A31960081F1
:1029F00010E0102F002731962081022B20E030E0DC
:102A0000C02AD12AE22AF32A1B01220C331C220CF1
:102A1000331C280E391EF101C0A6D1A6E2A6F3A6EA
:102A2000EB012A9603E0CC0FDD1F0A95E1F7C80FF2
:102A3000D91F9C012D563F4FF901208130E0322FE4
:102A40002227AC014E565F4FFA014081242B398377
:102A500028839B0153E0220F331F5A95E1F7280F7B
:102A6000391FE901CE5ADF4FAC014B565F4FFA01D7
:102A7000408150E0542F44278C010C561F4FF80121
:102A80001081412B598348832296AC0149565F4FF0
:102A9000FA01408150E0542F44278C010A561F4F01
:102AA000F8011081412B598348832A5A3F4FEC018A
:102AB000C756DF4F488150E0542F44272197C881E3
:102AC0004C2BF90151834083F10100AD11AD22ADD2
:102AD00033ADC016D106E206F30681F141E0ED0107
:102AE000C858DF4F4883EB01A496CC0FDD1FC80FF9
:102AF000D91F2801390140945094609470942301A7
:102B0000662477244701AA24BB2484209520998237
:102B10008882011106C0CC2021F0ED01C058DF4FA2
:102B20004883111106C0DD2021F0A458BF4F81E079
:102B30008C93F101C0AED1AEE2AEF3AEDF91CF9196
:102B40001F910F91FF90EF90DF90CF90BF90AF90CB
:102B50009F908F907F906F905F904F903F902F90BD
:102B600008958F929F92AF92BF92CF92DF92EF9291
:102B7000FF920F931F93CF93DF9300D0CDB7DEB7B3
:102B80006C01FC0187A1882309F45FC086010C5702
:102B90001F4FF80180819181A281B381892B8A2BFB
:102BA0008B2B09F447C00E947D06F801808091803C
:102BB000A280B380681979098A099B09693B7B4027
:102BC00081059105B8F5F12C81E030E2A32EB12CFE
:102BD000460128E8820E911CBA82A98290E0FC018D
:102BE000EE0FFF1FE80FF91FEC0DFD1DE12C840116
:102BF0009E012F5F3F4F4285F60161858781908559
:102C00000E94550E89819A81892B21F06F2DC60172
:102C10000E948214F394F4E0FF16B9F081E0F816F4
:102C200029F092E0F91621F087E0D6CF83E0D4CFE7
:102C300085E0D2CF0E947D06F80160837183828394
:102C40009383C6010E94EB13BECF80E00F900F90DC
:102C5000DF91CF911F910F91FF90EF90DF90CF9078
:102C6000BF90AF909F908F9008950895A1E21A2E83
:102C7000AA1BBB1BFD010DC0AA1FBB1FEE1FFF1F20
:102C8000A217B307E407F50720F0A21BB30BE40B70
:102C9000F50B661F771F881F991F1A9469F76095B7
:102CA0007095809590959B01AC01BD01CF01089571
:102CB000EE0FFF1F0590F491E02D0994F894FFCFDB
:102CC00001C8000000436F756E74657220436C6F1D
:102CD000636B5769736500436C6F636B576973650A
:102CE0002E2E2E00000000009403000516032F0373
:102CF000210372030D0A006E616E00696E66006F3B
:102D000076660000000000C9085508E80E000000C3
:102D1000002C1281116911B1154D1148115311493F
:062D2000114B11501100DF
:00000001FF
